{
  "contractName": "DarkRoom",
  "abi": [
    {
      "anonymous": false,
      "inputs": [
        {
          "indexed": false,
          "name": "lVoter",
          "type": "address"
        },
        {
          "indexed": false,
          "name": "totalYes",
          "type": "uint256"
        },
        {
          "indexed": false,
          "name": "totalNo",
          "type": "uint256"
        }
      ],
      "name": "NewVote",
      "type": "event"
    },
    {
      "constant": false,
      "inputs": [
        {
          "name": "option",
          "type": "bool"
        }
      ],
      "name": "vote",
      "outputs": [],
      "payable": false,
      "stateMutability": "nonpayable",
      "type": "function"
    },
    {
      "constant": true,
      "inputs": [],
      "name": "getResults",
      "outputs": [
        {
          "name": "",
          "type": "uint256"
        },
        {
          "name": "",
          "type": "uint256"
        }
      ],
      "payable": false,
      "stateMutability": "view",
      "type": "function"
    },
    {
      "constant": true,
      "inputs": [],
      "name": "getVoter",
      "outputs": [
        {
          "name": "",
          "type": "address"
        },
        {
          "name": "",
          "type": "bool"
        },
        {
          "name": "",
          "type": "bool"
        }
      ],
      "payable": false,
      "stateMutability": "view",
      "type": "function"
    }
  ],
  "bytecode": "0x60806040526000600155600060025534801561001a57600080fd5b5061036e8061002a6000396000f300608060405260043610610057576000357c0100000000000000000000000000000000000000000000000000000000900463ffffffff1680632b37f53c1461005c5780634717f97c146100c95780634b9f5c98146100fb575b600080fd5b34801561006857600080fd5b5061007161012a565b604051808473ffffffffffffffffffffffffffffffffffffffff1673ffffffffffffffffffffffffffffffffffffffff1681526020018315151515815260200182151515158152602001935050505060405180910390f35b3480156100d557600080fd5b506100de6101cf565b604051808381526020018281526020019250505060405180910390f35b34801561010757600080fd5b506101286004803603810190808035151590602001909291905050506101e0565b005b6000806000610137610324565b6000803373ffffffffffffffffffffffffffffffffffffffff1673ffffffffffffffffffffffffffffffffffffffff1681526020019081526020016000206040805190810160405290816000820160009054906101000a900460ff161515151581526020016000820160019054906101000a900460ff1615151515815250509050338160000151826020015193509350935050909192565b600080600154600254915091509091565b60008060003373ffffffffffffffffffffffffffffffffffffffff1673ffffffffffffffffffffffffffffffffffffffff16815260200190815260200160002090508060000160019054906101000a900460ff1615151561024057600080fd5b811561025d57600160008154809291906001019190505550610270565b6002600081548092919060010191905055505b818160000160006101000a81548160ff02191690831515021790555060018160000160016101000a81548160ff0219169083151502179055507f2fa70e1827070583e9d005d8f9615a3c9da46a089c016cf9cd32b1345a47380233600154600254604051808473ffffffffffffffffffffffffffffffffffffffff1673ffffffffffffffffffffffffffffffffffffffff168152602001838152602001828152602001935050505060405180910390a15050565b604080519081016040528060001515815260200160001515815250905600a165627a7a723058201ba3302c5337b33d95696daebb97819467120d752c4f35262d960e3f955fb1970029",
  "source": "pragma solidity ^0.4.18;\n\ncontract DarkRoom {\n  struct Voter {\n    bool vote;\n    bool hasVoted;\n  }\n\n  mapping (address => Voter) voters;\n\n  uint yes = 0;\n  uint no = 0;\n\n  event NewVote(address lVoter, uint totalYes, uint totalNo);\n\n  function vote(bool option) public {\n    Voter storage voter = voters[msg.sender];\n    require(!voter.hasVoted);\n\n    if (option) {\n      yes++;\n    } else {\n      no++;\n    }\n\n    voter.vote = option;\n    voter.hasVoted = true;\n\n    emit NewVote(msg.sender, yes, no);\n  }\n\n  function getResults() public view returns (uint, uint) {\n    return (yes, no);\n  }\n\n  function getVoter() public view returns (address, bool, bool) {\n    Voter memory voter = voters[msg.sender];\n\n    return (msg.sender, voter.vote, voter.hasVoted);\n  }\n}\n",
  "sourcePath": "/Users/lisandro/Projects/ethereum/voting-dapp/contracts/DarkRoom.sol",
  "compiler": {
    "name": "solc",
    "version": "0.4.24+commit.e67f0147.Emscripten.clang"
  },
  "schemaVersion": "2.0.1",
  "updatedAt": "2018-07-29T00:14:39.651Z"
}